{
  "contractName": "Counter",
  "abi": [
    {
      "inputs": [],
      "payable": false,
      "stateMutability": "nonpayable",
      "type": "constructor"
    },
    {
      "payable": true,
      "stateMutability": "payable",
      "type": "fallback"
    },
    {
      "constant": false,
      "inputs": [],
      "name": "increment",
      "outputs": [],
      "payable": false,
      "stateMutability": "nonpayable",
      "type": "function"
    },
    {
      "constant": true,
      "inputs": [],
      "name": "get",
      "outputs": [
        {
          "name": "",
          "type": "uint256"
        }
      ],
      "payable": false,
      "stateMutability": "view",
      "type": "function"
    }
  ],
  "bytecode": "0x608060405234801561001057600080fd5b506000808190555060ca806100266000396000f3fe6080604052600436106049576000357c0100000000000000000000000000000000000000000000000000000000900463ffffffff1680636d4ce63c14604b578063d09de08a146073575b005b348015605657600080fd5b50605d6087565b6040518082815260200191505060405180910390f35b348015607e57600080fd5b5060856090565b005b60008054905090565b60016000540160008190555056fea165627a7a72305820a3ce1d21d7ed5634cd421077252751648782ab06efdbeda3351eea4a1bd2c62b0029",
  "source": "pragma solidity ^0.5.0;\n\ncontract Counter {\n    uint count;\n\n    constructor () public {\n        count = 0;\n    }\n\n    function increment() public {\n        count = count + 1;\n    }\n\n    function get() public view returns (uint) {\n        return count;\n    }\n    function() external payable {}\n}",
  "sourcePath": "/Users/codeme/code/erc725-react/src/contracts/dummy/Counter.sol",
  "compiler": {
    "name": "solc",
    "version": "0.5.0+commit.1d4f565a.Emscripten.clang"
  },
  "schemaVersion": "3.0.2",
  "updatedAt": "2019-12-23T14:46:22.991Z",
  "devdoc": {
    "methods": {}
  },
  "userdoc": {
    "methods": {}
  }
}