{
  "contractName": "Identity",
  "abi": [
    {
      "constant": true,
      "inputs": [],
      "name": "owner",
      "outputs": [
        {
          "name": "",
          "type": "address"
        }
      ],
      "payable": false,
      "stateMutability": "view",
      "type": "function",
      "signature": "0x8da5cb5b"
    },
    {
      "inputs": [
        {
          "name": "_owner",
          "type": "address"
        }
      ],
      "payable": false,
      "stateMutability": "nonpayable",
      "type": "constructor",
      "signature": "constructor"
    },
    {
      "payable": true,
      "stateMutability": "payable",
      "type": "fallback"
    },
    {
      "anonymous": false,
      "inputs": [
        {
          "indexed": true,
          "name": "key",
          "type": "bytes32"
        },
        {
          "indexed": false,
          "name": "value",
          "type": "bytes"
        }
      ],
      "name": "DataChanged",
      "type": "event",
      "signature": "0xece574603820d07bc9b91f2a932baadf4628aabcb8afba49776529c14a6104b2"
    },
    {
      "anonymous": false,
      "inputs": [
        {
          "indexed": true,
          "name": "ownerAddress",
          "type": "address"
        }
      ],
      "name": "OwnerChanged",
      "type": "event",
      "signature": "0xa2ea9883a321a3e97b8266c2b078bfeec6d50c711ed71f874a90d500ae2eaf36"
    },
    {
      "anonymous": false,
      "inputs": [
        {
          "indexed": true,
          "name": "contractAddress",
          "type": "address"
        }
      ],
      "name": "ContractCreated",
      "type": "event",
      "signature": "0xcf78cf0d6f3d8371e1075c69c492ab4ec5d8cf23a1a239b6a51a1d00be7ca312"
    },
    {
      "constant": false,
      "inputs": [
        {
          "name": "_owner",
          "type": "address"
        }
      ],
      "name": "changeOwner",
      "outputs": [],
      "payable": false,
      "stateMutability": "nonpayable",
      "type": "function",
      "signature": "0xa6f9dae1"
    },
    {
      "constant": true,
      "inputs": [
        {
          "name": "_key",
          "type": "bytes32"
        }
      ],
      "name": "getData",
      "outputs": [
        {
          "name": "_value",
          "type": "bytes"
        }
      ],
      "payable": false,
      "stateMutability": "view",
      "type": "function",
      "signature": "0x54f6127f"
    },
    {
      "constant": false,
      "inputs": [
        {
          "name": "_key",
          "type": "bytes32"
        },
        {
          "name": "_value",
          "type": "bytes"
        }
      ],
      "name": "setData",
      "outputs": [],
      "payable": false,
      "stateMutability": "nonpayable",
      "type": "function",
      "signature": "0x7f23690c"
    },
    {
      "constant": false,
      "inputs": [
        {
          "name": "_operationType",
          "type": "uint256"
        },
        {
          "name": "_to",
          "type": "address"
        },
        {
          "name": "_value",
          "type": "uint256"
        },
        {
          "name": "_data",
          "type": "bytes"
        }
      ],
      "name": "execute",
      "outputs": [],
      "payable": false,
      "stateMutability": "nonpayable",
      "type": "function",
      "signature": "0x44c028fe"
    }
  ],
  "bytecode": "0x608060405234801561001057600080fd5b50604051602080610a0d8339810180604052602081101561003057600080fd5b810190808051906020019092919050505080600160006101000a81548173ffffffffffffffffffffffffffffffffffffffff021916908373ffffffffffffffffffffffffffffffffffffffff1602179055505061097b806100926000396000f3fe60806040526004361061006d576000357c0100000000000000000000000000000000000000000000000000000000900463ffffffff16806344c028fe1461006f57806354f6127f146101295780637f23690c146101dd5780638da5cb5b1461026d578063a6f9dae1146102c4575b005b34801561007b57600080fd5b506101276004803603608081101561009257600080fd5b8101908080359060200190929190803573ffffffffffffffffffffffffffffffffffffffff16906020019092919080359060200190929190803590602001906401000000008111156100e357600080fd5b8201836020820111156100f557600080fd5b8035906020019184600183028401116401000000008311171561011757600080fd5b9091929391929390505050610315565b005b34801561013557600080fd5b506101626004803603602081101561014c57600080fd5b81019080803590602001909291905050506104e8565b6040518080602001828103825283818151815260200191508051906020019080838360005b838110156101a2578082015181840152602081019050610187565b50505050905090810190601f1680156101cf5780820380516001836020036101000a031916815260200191505b509250505060405180910390f35b3480156101e957600080fd5b5061026b6004803603604081101561020057600080fd5b81019080803590602001909291908035906020019064010000000081111561022757600080fd5b82018360208201111561023957600080fd5b8035906020019184600183028401116401000000008311171561025b57600080fd5b909192939192939050505061059c565b005b34801561027957600080fd5b506102826106ec565b604051808273ffffffffffffffffffffffffffffffffffffffff1673ffffffffffffffffffffffffffffffffffffffff16815260200191505060405180910390f35b3480156102d057600080fd5b50610313600480360360208110156102e757600080fd5b81019080803573ffffffffffffffffffffffffffffffffffffffff169060200190929190505050610712565b005b600160009054906101000a900473ffffffffffffffffffffffffffffffffffffffff1673ffffffffffffffffffffffffffffffffffffffff163373ffffffffffffffffffffffffffffffffffffffff161415156103da576040517f08c379a00000000000000000000000000000000000000000000000000000000081526004018080602001828103825260128152602001807f6f6e6c792d6f776e65722d616c6c6f776564000000000000000000000000000081525060200191505060405180910390fd5b600085141561043857610432848484848080601f016020809104026020016040519081016040528093929190818152602001838380828437600081840152601f19601f82011690508083019250505050505050610880565b506104e1565b60018514156104db57600061049083838080601f016020809104026020016040519081016040528093929190818152602001838380828437600081840152601f19601f82011690508083019250505050505050610898565b90508073ffffffffffffffffffffffffffffffffffffffff167fcf78cf0d6f3d8371e1075c69c492ab4ec5d8cf23a1a239b6a51a1d00be7ca31260405160405180910390a2506104e0565b600080fd5b5b5050505050565b60606000808381526020019081526020016000208054600181600116156101000203166002900480601f0160208091040260200160405190810160405280929190818152602001828054600181600116156101000203166002900480156105905780601f1061056557610100808354040283529160200191610590565b820191906000526020600020905b81548152906001019060200180831161057357829003601f168201915b50505050509050919050565b600160009054906101000a900473ffffffffffffffffffffffffffffffffffffffff1673ffffffffffffffffffffffffffffffffffffffff163373ffffffffffffffffffffffffffffffffffffffff16141515610661576040517f08c379a00000000000000000000000000000000000000000000000000000000081526004018080602001828103825260128152602001807f6f6e6c792d6f776e65722d616c6c6f776564000000000000000000000000000081525060200191505060405180910390fd5b818160008086815260200190815260200160002091906106829291906108aa565b50827fece574603820d07bc9b91f2a932baadf4628aabcb8afba49776529c14a6104b2838360405180806020018281038252848482818152602001925080828437600081840152601f19601f820116905080830192505050935050505060405180910390a2505050565b600160009054906101000a900473ffffffffffffffffffffffffffffffffffffffff1681565b600160009054906101000a900473ffffffffffffffffffffffffffffffffffffffff1673ffffffffffffffffffffffffffffffffffffffff163373ffffffffffffffffffffffffffffffffffffffff161415156107d7576040517f08c379a00000000000000000000000000000000000000000000000000000000081526004018080602001828103825260128152602001807f6f6e6c792d6f776e65722d616c6c6f776564000000000000000000000000000081525060200191505060405180910390fd5b80600160006101000a81548173ffffffffffffffffffffffffffffffffffffffff021916908373ffffffffffffffffffffffffffffffffffffffff160217905550600160009054906101000a900473ffffffffffffffffffffffffffffffffffffffff1673ffffffffffffffffffffffffffffffffffffffff167fa2ea9883a321a3e97b8266c2b078bfeec6d50c711ed71f874a90d500ae2eaf3660405160405180910390a250565b600080600083516020850186885af190509392505050565b60008151602083016000f09050919050565b828054600181600116156101000203166002900490600052602060002090601f016020900481019282601f106108eb57803560ff1916838001178555610919565b82800160010185558215610919579182015b828111156109185782358255916020019190600101906108fd565b5b509050610926919061092a565b5090565b61094c91905b80821115610948576000816000905550600101610930565b5090565b9056fea165627a7a7230582016ab9e14e65d9827d07a984bcf01c028a2db26db2eae161801b44e6229f6ef6c0029",
  "source": "//pragma solidity ^0.5.4;\npragma solidity ^0.5.0;\n\nimport \"./ERC725.sol\";\n\ncontract Identity is ERC725 {\n    \n    uint256 constant OPERATION_CALL = 0;\n    uint256 constant OPERATION_CREATE = 1;\n    // bytes32 constant KEY_OWNER = 0x0000000000000000000000000000000000000000000000000000000000000000;\n\n    mapping(bytes32 => bytes) store;\n    \n    address public owner;\n    \n    constructor(address _owner) public {\n        owner = _owner;\n    }\n\n\n    modifier onlyOwner() {\n        require(msg.sender == owner, \"only-owner-allowed\");\n        _;\n    }\n    \n    // function toAddress(bytes32 a) internal pure returns (address b){\n    //   assembly {\n    //         mstore(0, a)\n    //         b := mload(0)\n    //     }\n    //   return b;\n    // }\n    \n    // function toBytes32(address a) internal pure returns (bytes32 b){\n    //   assembly {\n    //         mstore(0, a)\n    //         b := mload(0)\n    //     }\n    //   return b;\n    // }\n    \n    // ----------------\n    // Public functions\n    \n    function () external payable {}\n    \n    function changeOwner(address _owner)\n        external\n        onlyOwner\n    {\n        owner = _owner;\n        emit OwnerChanged(owner);\n    }\n\n    function getData(bytes32 _key)\n        external\n        view\n        returns (bytes memory _value)\n    {\n        return store[_key];\n    }\n\n    function setData(bytes32 _key, bytes calldata _value)\n        external\n        onlyOwner\n    {\n        store[_key] = _value;\n        emit DataChanged(_key, _value);\n    }\n\n    function execute(uint256 _operationType, address _to, uint256 _value, bytes calldata _data)\n        external\n        onlyOwner\n    {\n        if (_operationType == OPERATION_CALL) {\n            executeCall(_to, _value, _data);\n        } else if (_operationType == OPERATION_CREATE) {\n            address newContract = executeCreate(_data);\n            emit ContractCreated(newContract);\n        } else {\n            // We don't want to spend users gas if parametar is wrong\n            revert();\n        }\n    }\n\n    // copied from GnosisSafe\n    // https://github.com/gnosis/safe-contracts/blob/v0.0.2-alpha/contracts/base/Executor.sol\n    function executeCall(address to, uint256 value, bytes memory data)\n        internal\n        returns (bool success)\n    {\n        // solium-disable-next-line security/no-inline-assembly\n        assembly {\n            success := call(gas, to, value, add(data, 0x20), mload(data), 0, 0)\n        }\n    }\n\n    // copied from GnosisSafe\n    // https://github.com/gnosis/safe-contracts/blob/v0.0.2-alpha/contracts/base/Executor.sol\n    function executeCreate(bytes memory data)\n        internal\n        returns (address newContract)\n    {\n        // solium-disable-next-line security/no-inline-assembly\n        assembly {\n            newContract := create(0, add(data, 0x20), mload(data))\n        }\n    }\n}\n",
  "sourcePath": "/Users/codeme/code/erc725-react/src/contracts/Identity.sol",
  "compiler": {
    "name": "solc",
    "version": "0.5.0+commit.1d4f565a.Emscripten.clang"
  },
  "schemaVersion": "3.0.2",
  "updatedAt": "2019-12-23T14:46:23.403Z",
  "devdoc": {
    "methods": {}
  },
  "userdoc": {
    "methods": {}
  }
}