{
  "contractName": "KeyManager",
  "abi": [
    {
      "anonymous": false,
      "inputs": [
        {
          "indexed": true,
          "name": "key",
          "type": "bytes32"
        },
        {
          "indexed": true,
          "name": "purposes",
          "type": "uint256"
        },
        {
          "indexed": true,
          "name": "keyType",
          "type": "uint256"
        }
      ],
      "name": "KeySet",
      "type": "event",
      "signature": "0xe767bcb78b54c98a59a092fa283736e294b7089c620de282ce948c46f1c22465"
    },
    {
      "anonymous": false,
      "inputs": [
        {
          "indexed": true,
          "name": "key",
          "type": "bytes32"
        },
        {
          "indexed": true,
          "name": "purposes",
          "type": "uint256"
        },
        {
          "indexed": true,
          "name": "keyType",
          "type": "uint256"
        }
      ],
      "name": "KeyRemoved",
      "type": "event",
      "signature": "0x585a4aef50f8267a92b32412b331b20f7f8b96f2245b253b9cc50dcc621d3397"
    },
    {
      "constant": false,
      "inputs": [],
      "name": "initialize",
      "outputs": [],
      "payable": false,
      "stateMutability": "nonpayable",
      "type": "function",
      "signature": "0x8129fc1c"
    },
    {
      "constant": true,
      "inputs": [
        {
          "name": "_key",
          "type": "bytes32"
        }
      ],
      "name": "getKey",
      "outputs": [
        {
          "name": "_purposes",
          "type": "uint256"
        },
        {
          "name": "_keyType",
          "type": "uint256"
        }
      ],
      "payable": false,
      "stateMutability": "view",
      "type": "function",
      "signature": "0x12aaac70"
    },
    {
      "constant": true,
      "inputs": [
        {
          "name": "_key",
          "type": "bytes32"
        },
        {
          "name": "_purpose",
          "type": "uint256"
        }
      ],
      "name": "keyHasPurpose",
      "outputs": [
        {
          "name": "",
          "type": "bool"
        }
      ],
      "payable": false,
      "stateMutability": "view",
      "type": "function",
      "signature": "0xd202158d"
    },
    {
      "constant": false,
      "inputs": [
        {
          "name": "_key",
          "type": "bytes32"
        },
        {
          "name": "_purposes",
          "type": "uint256"
        },
        {
          "name": "_keyType",
          "type": "uint256"
        }
      ],
      "name": "setKey",
      "outputs": [],
      "payable": false,
      "stateMutability": "nonpayable",
      "type": "function",
      "signature": "0x833f9f9d"
    },
    {
      "constant": false,
      "inputs": [
        {
          "name": "_key",
          "type": "bytes32"
        }
      ],
      "name": "removeKey",
      "outputs": [],
      "payable": false,
      "stateMutability": "nonpayable",
      "type": "function",
      "signature": "0x862642f5"
    }
  ],
  "bytecode": "0x608060405234801561001057600080fd5b50610858806100206000396000f3fe60806040526004361061006d576000357c0100000000000000000000000000000000000000000000000000000000900463ffffffff16806312aaac70146100725780638129fc1c146100c8578063833f9f9d146100df578063862642f51461012e578063d202158d14610169575b600080fd5b34801561007e57600080fd5b506100ab6004803603602081101561009557600080fd5b81019080803590602001909291905050506101c6565b604051808381526020018281526020019250505060405180910390f35b3480156100d457600080fd5b506100dd6101fe565b005b3480156100eb57600080fd5b5061012c6004803603606081101561010257600080fd5b8101908080359060200190929190803590602001909291908035906020019092919050505061033c565b005b34801561013a57600080fd5b506101676004803603602081101561015157600080fd5b8101908080359060200190929190505050610536565b005b34801561017557600080fd5b506101ac6004803603604081101561018c57600080fd5b810190808035906020019092919080359060200190929190505050610763565b604051808215151515815260200191505060405180910390f35b600080600080848152602001908152602001600020600001546000808581526020019081526020016000206001015491509150915091565b600160009054906101000a900460ff16151515610283576040517f08c379a000000000000000000000000000000000000000000000000000000000815260040180806020018281038252601c8152602001807f636f6e74726163742d616c72656164792d696e697469616c697a65640000000081525060200191505060405180910390fd5b60018060006101000a81548160ff021916908315150217905550600033604051602001808273ffffffffffffffffffffffffffffffffffffffff1673ffffffffffffffffffffffffffffffffffffffff166c0100000000000000000000000002815260140191505060405160208183030381529060405280519060200120905060016000808381526020019081526020016000206001018190555060016000808381526020019081526020016000206000018190555050565b3073ffffffffffffffffffffffffffffffffffffffff163373ffffffffffffffffffffffffffffffffffffffff16141515610452576103dd33604051602001808273ffffffffffffffffffffffffffffffffffffffff1673ffffffffffffffffffffffffffffffffffffffff166c01000000000000000000000000028152601401915050604051602081830303815290604052805190602001206001610763565b1515610451576040517f08c379a000000000000000000000000000000000000000000000000000000000815260040180806020018281038252601f8152602001807f73656e6465722d6d7573742d686176652d6d616e6167656d656e742d6b65790081525060200191505060405180910390fd5b5b600060010283141515156104ce576040517f08c379a000000000000000000000000000000000000000000000000000000000815260040180806020018281038252600b8152602001807f696e76616c69642d6b657900000000000000000000000000000000000000000081525060200191505060405180910390fd5b816000808581526020019081526020016000206000018190555080600080858152602001908152602001600020600101819055508082847fe767bcb78b54c98a59a092fa283736e294b7089c620de282ce948c46f1c2246560405160405180910390a4505050565b3073ffffffffffffffffffffffffffffffffffffffff163373ffffffffffffffffffffffffffffffffffffffff1614151561064c576105d733604051602001808273ffffffffffffffffffffffffffffffffffffffff1673ffffffffffffffffffffffffffffffffffffffff166c01000000000000000000000000028152601401915050604051602081830303815290604052805190602001206001610763565b151561064b576040517f08c379a000000000000000000000000000000000000000000000000000000000815260040180806020018281038252601f8152602001807f73656e6465722d6d7573742d686176652d6d616e6167656d656e742d6b65790081525060200191505060405180910390fd5b5b600060010281141515156106c8576040517f08c379a000000000000000000000000000000000000000000000000000000000815260040180806020018281038252600b8152602001807f696e76616c69642d6b657900000000000000000000000000000000000000000081525060200191505060405180910390fd5b6106d0610812565b6000808381526020019081526020016000206040805190810160405290816000820154815260200160018201548152505090506000808381526020019081526020016000206000808201600090556001820160009055505080602001518160000151837f585a4aef50f8267a92b32412b331b20f7f8b96f2245b253b9cc50dcc621d339760405160405180910390a45050565b600080821415801561077a57506000600183038316145b15156107ee576040517f08c379a000000000000000000000000000000000000000000000000000000000815260040180806020018281038252601a8152602001807f707572706f73652d6d7573742d62652d706f7765722d6f662d3200000000000081525060200191505060405180910390fd5b60008260008086815260200190815260200160002060000154161415905092915050565b60408051908101604052806000815260200160008152509056fea165627a7a72305820d97e3ef971d62bc30d946a2495ce88c162bbf796c28e453d3f24c757d95795750029",
  "source": "//pragma solidity ^0.5.1;\npragma solidity ^0.5.0;\n\ncontract KeyManager {\n    event KeySet(bytes32 indexed key, uint256 indexed purposes, uint256 indexed keyType);\n    event KeyRemoved(bytes32 indexed key, uint256 indexed purposes, uint256 indexed keyType);\n\n    uint256 constant MANAGEMENT_KEY = 1;\n    uint256 constant EXECUTION_KEY = 2;\n    uint256 constant ECDSA_TYPE = 1;\n    uint256 constant RSA_TYPE = 2;\n\n    struct Key {\n        // Purposes are represented via bitmasks\n        // Maximum number of purposes is 256 and must be integers that are power of 2 e.g.:\n        // 1, 2, 4, 8, 16, 32, 64 ...\n        // All other integers represent multiple purposes e.g:\n        // Integer 3 (011) represent both 1 (001) and 2 (010) purpose\n        uint256 purposes;\n        uint256 keyType;\n    }\n\n    mapping (bytes32 => Key) keys;\n    bool initialized;\n\n    modifier onlyManagementKeyOrSelf() {\n        if (msg.sender != address(this)) {\n            require(keyHasPurpose(keccak256(abi.encodePacked(msg.sender)), MANAGEMENT_KEY), \"sender-must-have-management-key\");\n        }\n        _;\n    }\n\n    function initialize() public {\n        require(!initialized, \"contract-already-initialized\");\n        initialized = true;\n        bytes32 key = keccak256(abi.encodePacked(msg.sender));\n        keys[key].keyType = ECDSA_TYPE;\n        keys[key].purposes = MANAGEMENT_KEY;\n    }\n\n    function getKey(bytes32 _key) public view returns (uint256 _purposes, uint256 _keyType) {\n        return (keys[_key].purposes, keys[_key].keyType);\n    }\n\n    function keyHasPurpose(bytes32 _key, uint256 _purpose) public view returns (bool) {\n        // Only purposes that are power of 2 are allowed e.g.:\n        // 1, 2, 4, 8, 16, 32, 64 ...\n        // Integers that represent multiple purposes are not allowed\n        require(_purpose != 0 && (_purpose & (_purpose - uint256(1))) == 0, \"purpose-must-be-power-of-2\");\n        return (keys[_key].purposes & _purpose) != 0;\n    }\n\n    function setKey(bytes32 _key, uint256 _purposes, uint256 _keyType) public onlyManagementKeyOrSelf {\n        require(_key != 0x0, \"invalid-key\");\n        keys[_key].purposes = _purposes;\n        keys[_key].keyType = _keyType;\n        emit KeySet(_key, _purposes, _keyType);\n    }\n\n    function removeKey(bytes32 _key) public onlyManagementKeyOrSelf {\n        require(_key != 0x0, \"invalid-key\");\n        Key memory key = keys[_key];\n        delete keys[_key];\n        emit KeyRemoved(_key, key.purposes, key.keyType);\n    }\n}\n",
  "sourcePath": "/Users/codeme/code/erc725-react/src/contracts/KeyManager.sol",
  "compiler": {
    "name": "solc",
    "version": "0.5.0+commit.1d4f565a.Emscripten.clang"
  },
  "schemaVersion": "3.0.2",
  "updatedAt": "2019-12-23T14:46:23.405Z",
  "devdoc": {
    "methods": {}
  },
  "userdoc": {
    "methods": {}
  }
}